{
  "abi": [
    {
      "inputs": [],
      "name": "click",
      "outputs": [],
      "stateMutability": "nonpayable",
      "type": "function"
    },
    {
      "inputs": [],
      "name": "counter",
      "outputs": [
        {
          "internalType": "uint256",
          "name": "",
          "type": "uint256"
        }
      ],
      "stateMutability": "view",
      "type": "function"
    },
    {
      "inputs": [],
      "name": "getCounter",
      "outputs": [
        {
          "internalType": "uint256",
          "name": "",
          "type": "uint256"
        }
      ],
      "stateMutability": "view",
      "type": "function"
    },
    {
      "inputs": [],
      "name": "getMessage",
      "outputs": [
        {
          "internalType": "string",
          "name": "",
          "type": "string"
        }
      ],
      "stateMutability": "view",
      "type": "function"
    },
    {
      "inputs": [],
      "name": "message",
      "outputs": [
        {
          "internalType": "string",
          "name": "",
          "type": "string"
        }
      ],
      "stateMutability": "view",
      "type": "function"
    },
    {
      "inputs": [
        {
          "internalType": "string",
          "name": "_msg",
          "type": "string"
        }
      ],
      "name": "setMessage",
      "outputs": [],
      "stateMutability": "nonpayable",
      "type": "function"
    }
  ],
  "devdoc": {
    "custom:contract-type": "custom",
    "kind": "dev",
    "methods": {},
    "title": "ClickerTest",
    "version": 1
  },
  "evm": {
    "assembly": "    /* \"ClickerTest.sol\":120:547  contract ClickerTest {... */\n  mstore(0x40, 0x80)\n  callvalue\n  dup1\n  iszero\n  tag_1\n  jumpi\n  0x00\n  dup1\n  revert\ntag_1:\n  pop\n  dataSize(sub_0)\n  dup1\n  dataOffset(sub_0)\n  0x00\n  codecopy\n  0x00\n  return\nstop\n\nsub_0: assembly {\n        /* \"ClickerTest.sol\":120:547  contract ClickerTest {... */\n      mstore(0x40, 0x80)\n      callvalue\n      dup1\n      iszero\n      tag_1\n      jumpi\n      0x00\n      dup1\n      revert\n    tag_1:\n      pop\n      jumpi(tag_2, lt(calldatasize, 0x04))\n      shr(0xe0, calldataload(0x00))\n      dup1\n      0x8ada066e\n      gt\n      tag_9\n      jumpi\n      dup1\n      0x8ada066e\n      eq\n      tag_6\n      jumpi\n      dup1\n      0xce6d41de\n      eq\n      tag_7\n      jumpi\n      dup1\n      0xe21f37ce\n      eq\n      tag_8\n      jumpi\n      0x00\n      dup1\n      revert\n    tag_9:\n      dup1\n      0x368b8772\n      eq\n      tag_3\n      jumpi\n      dup1\n      0x61bc221a\n      eq\n      tag_4\n      jumpi\n      dup1\n      0x7d55923d\n      eq\n      tag_5\n      jumpi\n    tag_2:\n      0x00\n      dup1\n      revert\n        /* \"ClickerTest.sol\":270:352  function setMessage(string calldata _msg) public {... */\n    tag_3:\n      tag_10\n      tag_11\n      calldatasize\n      0x04\n      tag_12\n      jump\t// in\n    tag_11:\n      tag_13\n      jump\t// in\n    tag_10:\n      stop\n        /* \"ClickerTest.sol\":148:170  uint256 public counter */\n    tag_4:\n      tag_14\n      sload(0x00)\n      dup2\n      jump\n    tag_14:\n      mload(0x40)\n        /* \"#utility.yul\":757:782   */\n      swap1\n      dup2\n      mstore\n        /* \"#utility.yul\":745:747   */\n      0x20\n        /* \"#utility.yul\":730:748   */\n      add\n        /* \"ClickerTest.sol\":148:170  uint256 public counter */\n    tag_16:\n      mload(0x40)\n      dup1\n      swap2\n      sub\n      swap1\n      return\n        /* \"ClickerTest.sol\":207:262  function click() public {... */\n    tag_5:\n      tag_10\n      tag_19\n      jump\t// in\n        /* \"ClickerTest.sol\":459:544  function getCounter() public view returns (uint256) {... */\n    tag_6:\n        /* \"ClickerTest.sol\":502:509  uint256 */\n      0x00\n        /* \"ClickerTest.sol\":529:536  counter */\n      sload\n        /* \"ClickerTest.sol\":459:544  function getCounter() public view returns (uint256) {... */\n      jump(tag_14)\n        /* \"ClickerTest.sol\":360:451  function getMessage() public view returns (string memory) {... */\n    tag_7:\n      tag_23\n      tag_24\n      jump\t// in\n    tag_23:\n      mload(0x40)\n      tag_16\n      swap2\n      swap1\n      tag_26\n      jump\t// in\n        /* \"ClickerTest.sol\":177:198  string public message */\n    tag_8:\n      tag_23\n      tag_28\n      jump\t// in\n        /* \"ClickerTest.sol\":270:352  function setMessage(string calldata _msg) public {... */\n    tag_13:\n        /* \"ClickerTest.sol\":330:337  message */\n      0x01\n        /* \"ClickerTest.sol\":330:344  message = _msg */\n      tag_31\n        /* \"ClickerTest.sol\":340:344  _msg */\n      dup3\n      dup5\n        /* \"ClickerTest.sol\":330:337  message */\n      dup4\n        /* \"ClickerTest.sol\":330:344  message = _msg */\n      tag_32\n      jump\t// in\n    tag_31:\n      pop\n        /* \"ClickerTest.sol\":270:352  function setMessage(string calldata _msg) public {... */\n      pop\n      pop\n      jump\t// out\n        /* \"ClickerTest.sol\":207:262  function click() public {... */\n    tag_19:\n        /* \"ClickerTest.sol\":253:254  1 */\n      0x01\n        /* \"ClickerTest.sol\":242:249  counter */\n      0x00\n      dup1\n        /* \"ClickerTest.sol\":242:254  counter += 1 */\n      dup3\n      dup3\n      sload\n      tag_34\n      swap2\n      swap1\n      tag_35\n      jump\t// in\n    tag_34:\n      swap1\n      swap2\n      sstore\n      pop\n      pop\n        /* \"ClickerTest.sol\":207:262  function click() public {... */\n      jump\t// out\n        /* \"ClickerTest.sol\":360:451  function getMessage() public view returns (string memory) {... */\n    tag_24:\n        /* \"ClickerTest.sol\":403:416  string memory */\n      0x60\n        /* \"ClickerTest.sol\":436:443  message */\n      0x01\n        /* \"ClickerTest.sol\":429:443  return message */\n      dup1\n      sload\n      tag_38\n      swap1\n      tag_39\n      jump\t// in\n    tag_38:\n      dup1\n      0x1f\n      add\n      0x20\n      dup1\n      swap2\n      div\n      mul\n      0x20\n      add\n      mload(0x40)\n      swap1\n      dup2\n      add\n      0x40\n      mstore\n      dup1\n      swap3\n      swap2\n      swap1\n      dup2\n      dup2\n      mstore\n      0x20\n      add\n      dup3\n      dup1\n      sload\n      tag_40\n      swap1\n      tag_39\n      jump\t// in\n    tag_40:\n      dup1\n      iszero\n      tag_41\n      jumpi\n      dup1\n      0x1f\n      lt\n      tag_42\n      jumpi\n      0x0100\n      dup1\n      dup4\n      sload\n      div\n      mul\n      dup4\n      mstore\n      swap2\n      0x20\n      add\n      swap2\n      jump(tag_41)\n    tag_42:\n      dup3\n      add\n      swap2\n      swap1\n      0x00\n      mstore\n      keccak256(0x00, 0x20)\n      swap1\n    tag_43:\n      dup2\n      sload\n      dup2\n      mstore\n      swap1\n      0x01\n      add\n      swap1\n      0x20\n      add\n      dup1\n      dup4\n      gt\n      tag_43\n      jumpi\n      dup3\n      swap1\n      sub\n      0x1f\n      and\n      dup3\n      add\n      swap2\n    tag_41:\n      pop\n      pop\n      pop\n      pop\n      pop\n      swap1\n      pop\n        /* \"ClickerTest.sol\":360:451  function getMessage() public view returns (string memory) {... */\n      swap1\n      jump\t// out\n        /* \"ClickerTest.sol\":177:198  string public message */\n    tag_28:\n      0x01\n      dup1\n      sload\n      tag_44\n      swap1\n      tag_39\n      jump\t// in\n    tag_44:\n      dup1\n      0x1f\n      add\n      0x20\n      dup1\n      swap2\n      div\n      mul\n      0x20\n      add\n      mload(0x40)\n      swap1\n      dup2\n      add\n      0x40\n      mstore\n      dup1\n      swap3\n      swap2\n      swap1\n      dup2\n      dup2\n      mstore\n      0x20\n      add\n      dup3\n      dup1\n      sload\n      tag_45\n      swap1\n      tag_39\n      jump\t// in\n    tag_45:\n      dup1\n      iszero\n      tag_46\n      jumpi\n      dup1\n      0x1f\n      lt\n      tag_47\n      jumpi\n      0x0100\n      dup1\n      dup4\n      sload\n      div\n      mul\n      dup4\n      mstore\n      swap2\n      0x20\n      add\n      swap2\n      jump(tag_46)\n    tag_47:\n      dup3\n      add\n      swap2\n      swap1\n      0x00\n      mstore\n      keccak256(0x00, 0x20)\n      swap1\n    tag_48:\n      dup2\n      sload\n      dup2\n      mstore\n      swap1\n      0x01\n      add\n      swap1\n      0x20\n      add\n      dup1\n      dup4\n      gt\n      tag_48\n      jumpi\n      dup3\n      swap1\n      sub\n      0x1f\n      and\n      dup3\n      add\n      swap2\n    tag_46:\n      pop\n      pop\n      pop\n      pop\n      pop\n      dup2\n      jump\t// out\n        /* \"#utility.yul\":14:606   */\n    tag_12:\n        /* \"#utility.yul\":85:91   */\n      0x00\n        /* \"#utility.yul\":93:99   */\n      dup1\n        /* \"#utility.yul\":146:148   */\n      0x20\n        /* \"#utility.yul\":134:143   */\n      dup4\n        /* \"#utility.yul\":125:132   */\n      dup6\n        /* \"#utility.yul\":121:144   */\n      sub\n        /* \"#utility.yul\":117:149   */\n      slt\n        /* \"#utility.yul\":114:166   */\n      iszero\n      tag_55\n      jumpi\n        /* \"#utility.yul\":162:163   */\n      0x00\n        /* \"#utility.yul\":159:160   */\n      dup1\n        /* \"#utility.yul\":152:164   */\n      revert\n        /* \"#utility.yul\":114:166   */\n    tag_55:\n        /* \"#utility.yul\":202:211   */\n      dup3\n        /* \"#utility.yul\":189:212   */\n      calldataload\n        /* \"#utility.yul\":231:249   */\n      0xffffffffffffffff\n        /* \"#utility.yul\":272:274   */\n      dup1\n        /* \"#utility.yul\":264:270   */\n      dup3\n        /* \"#utility.yul\":261:275   */\n      gt\n        /* \"#utility.yul\":258:292   */\n      iszero\n      tag_56\n      jumpi\n        /* \"#utility.yul\":288:289   */\n      0x00\n        /* \"#utility.yul\":285:286   */\n      dup1\n        /* \"#utility.yul\":278:290   */\n      revert\n        /* \"#utility.yul\":258:292   */\n    tag_56:\n        /* \"#utility.yul\":326:332   */\n      dup2\n        /* \"#utility.yul\":315:324   */\n      dup6\n        /* \"#utility.yul\":311:333   */\n      add\n        /* \"#utility.yul\":301:333   */\n      swap2\n      pop\n        /* \"#utility.yul\":371:378   */\n      dup6\n        /* \"#utility.yul\":364:368   */\n      0x1f\n        /* \"#utility.yul\":360:362   */\n      dup4\n        /* \"#utility.yul\":356:369   */\n      add\n        /* \"#utility.yul\":352:379   */\n      slt\n        /* \"#utility.yul\":342:397   */\n      tag_57\n      jumpi\n        /* \"#utility.yul\":393:394   */\n      0x00\n        /* \"#utility.yul\":390:391   */\n      dup1\n        /* \"#utility.yul\":383:395   */\n      revert\n        /* \"#utility.yul\":342:397   */\n    tag_57:\n        /* \"#utility.yul\":433:435   */\n      dup2\n        /* \"#utility.yul\":420:436   */\n      calldataload\n        /* \"#utility.yul\":459:461   */\n      dup2\n        /* \"#utility.yul\":451:457   */\n      dup2\n        /* \"#utility.yul\":448:462   */\n      gt\n        /* \"#utility.yul\":445:479   */\n      iszero\n      tag_58\n      jumpi\n        /* \"#utility.yul\":475:476   */\n      0x00\n        /* \"#utility.yul\":472:473   */\n      dup1\n        /* \"#utility.yul\":465:477   */\n      revert\n        /* \"#utility.yul\":445:479   */\n    tag_58:\n        /* \"#utility.yul\":520:527   */\n      dup7\n        /* \"#utility.yul\":515:517   */\n      0x20\n        /* \"#utility.yul\":506:512   */\n      dup3\n        /* \"#utility.yul\":502:504   */\n      dup6\n        /* \"#utility.yul\":498:513   */\n      add\n        /* \"#utility.yul\":494:518   */\n      add\n        /* \"#utility.yul\":491:528   */\n      gt\n        /* \"#utility.yul\":488:545   */\n      iszero\n      tag_59\n      jumpi\n        /* \"#utility.yul\":541:542   */\n      0x00\n        /* \"#utility.yul\":538:539   */\n      dup1\n        /* \"#utility.yul\":531:543   */\n      revert\n        /* \"#utility.yul\":488:545   */\n    tag_59:\n        /* \"#utility.yul\":572:574   */\n      0x20\n        /* \"#utility.yul\":564:575   */\n      swap3\n      swap1\n      swap3\n      add\n      swap7\n        /* \"#utility.yul\":594:600   */\n      swap2\n      swap6\n      pop\n        /* \"#utility.yul\":14:606   */\n      swap1\n      swap4\n      pop\n      pop\n      pop\n      pop\n      jump\t// out\n        /* \"#utility.yul\":793:1211   */\n    tag_26:\n        /* \"#utility.yul\":942:944   */\n      0x20\n        /* \"#utility.yul\":931:940   */\n      dup2\n        /* \"#utility.yul\":924:945   */\n      mstore\n        /* \"#utility.yul\":905:909   */\n      0x00\n        /* \"#utility.yul\":974:980   */\n      dup3\n        /* \"#utility.yul\":968:981   */\n      mload\n        /* \"#utility.yul\":1017:1023   */\n      dup1\n        /* \"#utility.yul\":1012:1014   */\n      0x20\n        /* \"#utility.yul\":1001:1010   */\n      dup5\n        /* \"#utility.yul\":997:1015   */\n      add\n        /* \"#utility.yul\":990:1024   */\n      mstore\n        /* \"#utility.yul\":1076:1082   */\n      dup1\n        /* \"#utility.yul\":1071:1073   */\n      0x20\n        /* \"#utility.yul\":1063:1069   */\n      dup6\n        /* \"#utility.yul\":1059:1074   */\n      add\n        /* \"#utility.yul\":1054:1056   */\n      0x40\n        /* \"#utility.yul\":1043:1052   */\n      dup6\n        /* \"#utility.yul\":1039:1057   */\n      add\n        /* \"#utility.yul\":1033:1083   */\n      mcopy\n        /* \"#utility.yul\":1132:1133   */\n      0x00\n        /* \"#utility.yul\":1127:1129   */\n      0x40\n        /* \"#utility.yul\":1118:1124   */\n      dup3\n        /* \"#utility.yul\":1107:1116   */\n      dup6\n        /* \"#utility.yul\":1103:1125   */\n      add\n        /* \"#utility.yul\":1099:1130   */\n      add\n        /* \"#utility.yul\":1092:1134   */\n      mstore\n        /* \"#utility.yul\":1202:1204   */\n      0x40\n        /* \"#utility.yul\":1195:1197   */\n      0x1f\n        /* \"#utility.yul\":1191:1198   */\n      not\n        /* \"#utility.yul\":1186:1188   */\n      0x1f\n        /* \"#utility.yul\":1178:1184   */\n      dup4\n        /* \"#utility.yul\":1174:1189   */\n      add\n        /* \"#utility.yul\":1170:1199   */\n      and\n        /* \"#utility.yul\":1159:1168   */\n      dup5\n        /* \"#utility.yul\":1155:1200   */\n      add\n        /* \"#utility.yul\":1151:1205   */\n      add\n        /* \"#utility.yul\":1143:1205   */\n      swap2\n      pop\n      pop\n        /* \"#utility.yul\":793:1211   */\n      swap3\n      swap2\n      pop\n      pop\n      jump\t// out\n        /* \"#utility.yul\":1216:1343   */\n    tag_49:\n        /* \"#utility.yul\":1277:1287   */\n      0x4e487b71\n        /* \"#utility.yul\":1272:1275   */\n      0xe0\n        /* \"#utility.yul\":1268:1288   */\n      shl\n        /* \"#utility.yul\":1265:1266   */\n      0x00\n        /* \"#utility.yul\":1258:1289   */\n      mstore\n        /* \"#utility.yul\":1308:1312   */\n      0x41\n        /* \"#utility.yul\":1305:1306   */\n      0x04\n        /* \"#utility.yul\":1298:1313   */\n      mstore\n        /* \"#utility.yul\":1332:1336   */\n      0x24\n        /* \"#utility.yul\":1329:1330   */\n      0x00\n        /* \"#utility.yul\":1322:1337   */\n      revert\n        /* \"#utility.yul\":1348:1728   */\n    tag_39:\n        /* \"#utility.yul\":1427:1428   */\n      0x01\n        /* \"#utility.yul\":1423:1435   */\n      dup2\n      dup2\n      shr\n      swap1\n        /* \"#utility.yul\":1470:1482   */\n      dup3\n      and\n      dup1\n        /* \"#utility.yul\":1491:1552   */\n      tag_64\n      jumpi\n        /* \"#utility.yul\":1545:1549   */\n      0x7f\n        /* \"#utility.yul\":1537:1543   */\n      dup3\n        /* \"#utility.yul\":1533:1550   */\n      and\n        /* \"#utility.yul\":1523:1550   */\n      swap2\n      pop\n        /* \"#utility.yul\":1491:1552   */\n    tag_64:\n        /* \"#utility.yul\":1598:1600   */\n      0x20\n        /* \"#utility.yul\":1590:1596   */\n      dup3\n        /* \"#utility.yul\":1587:1601   */\n      lt\n        /* \"#utility.yul\":1567:1585   */\n      dup2\n        /* \"#utility.yul\":1564:1602   */\n      sub\n        /* \"#utility.yul\":1561:1722   */\n      tag_65\n      jumpi\n        /* \"#utility.yul\":1644:1654   */\n      0x4e487b71\n        /* \"#utility.yul\":1639:1642   */\n      0xe0\n        /* \"#utility.yul\":1635:1655   */\n      shl\n        /* \"#utility.yul\":1632:1633   */\n      0x00\n        /* \"#utility.yul\":1625:1656   */\n      mstore\n        /* \"#utility.yul\":1679:1683   */\n      0x22\n        /* \"#utility.yul\":1676:1677   */\n      0x04\n        /* \"#utility.yul\":1669:1684   */\n      mstore\n        /* \"#utility.yul\":1707:1711   */\n      0x24\n        /* \"#utility.yul\":1704:1705   */\n      0x00\n        /* \"#utility.yul\":1697:1712   */\n      revert\n        /* \"#utility.yul\":1561:1722   */\n    tag_65:\n      pop\n        /* \"#utility.yul\":1348:1728   */\n      swap2\n      swap1\n      pop\n      jump\t// out\n        /* \"#utility.yul\":1859:2377   */\n    tag_51:\n        /* \"#utility.yul\":1961:1963   */\n      0x1f\n        /* \"#utility.yul\":1956:1959   */\n      dup3\n        /* \"#utility.yul\":1953:1964   */\n      gt\n        /* \"#utility.yul\":1950:2371   */\n      iszero\n      tag_31\n      jumpi\n        /* \"#utility.yul\":1997:2002   */\n      dup1\n        /* \"#utility.yul\":1994:1995   */\n      0x00\n        /* \"#utility.yul\":1987:2003   */\n      mstore\n        /* \"#utility.yul\":2041:2045   */\n      0x20\n        /* \"#utility.yul\":2038:2039   */\n      0x00\n        /* \"#utility.yul\":2028:2046   */\n      keccak256\n        /* \"#utility.yul\":2111:2113   */\n      0x1f\n        /* \"#utility.yul\":2099:2109   */\n      dup5\n        /* \"#utility.yul\":2095:2114   */\n      add\n        /* \"#utility.yul\":2092:2093   */\n      0x05\n        /* \"#utility.yul\":2088:2115   */\n      shr\n        /* \"#utility.yul\":2082:2086   */\n      dup2\n        /* \"#utility.yul\":2078:2116   */\n      add\n        /* \"#utility.yul\":2147:2151   */\n      0x20\n        /* \"#utility.yul\":2135:2145   */\n      dup6\n        /* \"#utility.yul\":2132:2152   */\n      lt\n        /* \"#utility.yul\":2129:2176   */\n      iszero\n      tag_69\n      jumpi\n      pop\n        /* \"#utility.yul\":2170:2174   */\n      dup1\n        /* \"#utility.yul\":2129:2176   */\n    tag_69:\n        /* \"#utility.yul\":2225:2227   */\n      0x1f\n        /* \"#utility.yul\":2220:2223   */\n      dup5\n        /* \"#utility.yul\":2216:2228   */\n      add\n        /* \"#utility.yul\":2213:2214   */\n      0x05\n        /* \"#utility.yul\":2209:2229   */\n      shr\n        /* \"#utility.yul\":2203:2207   */\n      dup3\n        /* \"#utility.yul\":2199:2230   */\n      add\n        /* \"#utility.yul\":2189:2230   */\n      swap2\n      pop\n        /* \"#utility.yul\":2280:2361   */\n    tag_70:\n        /* \"#utility.yul\":2298:2300   */\n      dup2\n        /* \"#utility.yul\":2291:2296   */\n      dup2\n        /* \"#utility.yul\":2288:2301   */\n      lt\n        /* \"#utility.yul\":2280:2361   */\n      iszero\n      tag_72\n      jumpi\n        /* \"#utility.yul\":2357:2358   */\n      0x00\n        /* \"#utility.yul\":2343:2359   */\n      dup2\n      sstore\n        /* \"#utility.yul\":2324:2325   */\n      0x01\n        /* \"#utility.yul\":2313:2326   */\n      add\n        /* \"#utility.yul\":2280:2361   */\n      jump(tag_70)\n    tag_72:\n        /* \"#utility.yul\":2284:2287   */\n      pop\n      pop\n        /* \"#utility.yul\":1859:2377   */\n      pop\n      pop\n      pop\n      jump\t// out\n        /* \"#utility.yul\":2553:3751   */\n    tag_32:\n        /* \"#utility.yul\":2677:2695   */\n      0xffffffffffffffff\n        /* \"#utility.yul\":2672:2675   */\n      dup4\n        /* \"#utility.yul\":2669:2696   */\n      gt\n        /* \"#utility.yul\":2666:2719   */\n      iszero\n      tag_76\n      jumpi\n        /* \"#utility.yul\":2699:2717   */\n      tag_76\n      tag_49\n      jump\t// in\n    tag_76:\n        /* \"#utility.yul\":2728:2822   */\n      tag_77\n        /* \"#utility.yul\":2818:2821   */\n      dup4\n        /* \"#utility.yul\":2778:2816   */\n      tag_78\n        /* \"#utility.yul\":2810:2814   */\n      dup4\n        /* \"#utility.yul\":2804:2815   */\n      sload\n        /* \"#utility.yul\":2778:2816   */\n      tag_39\n      jump\t// in\n    tag_78:\n        /* \"#utility.yul\":2772:2776   */\n      dup4\n        /* \"#utility.yul\":2728:2822   */\n      tag_51\n      jump\t// in\n    tag_77:\n        /* \"#utility.yul\":2848:2849   */\n      0x00\n        /* \"#utility.yul\":2873:2875   */\n      0x1f\n        /* \"#utility.yul\":2868:2871   */\n      dup5\n        /* \"#utility.yul\":2865:2876   */\n      gt\n        /* \"#utility.yul\":2890:2891   */\n      0x01\n        /* \"#utility.yul\":2885:3493   */\n      dup2\n      eq\n      tag_80\n      jumpi\n        /* \"#utility.yul\":3537:3538   */\n      0x00\n        /* \"#utility.yul\":3554:3557   */\n      dup6\n        /* \"#utility.yul\":3551:3644   */\n      iszero\n      tag_81\n      jumpi\n      pop\n        /* \"#utility.yul\":3610:3629   */\n      dup4\n      dup3\n      add\n        /* \"#utility.yul\":3597:3630   */\n      calldataload\n        /* \"#utility.yul\":3551:3644   */\n    tag_81:\n      not(0x00)\n        /* \"#utility.yul\":2510:2511   */\n      0x03\n        /* \"#utility.yul\":2506:2517   */\n      dup8\n      swap1\n      shl\n        /* \"#utility.yul\":2502:2526   */\n      shr\n        /* \"#utility.yul\":2498:2527   */\n      not\n        /* \"#utility.yul\":2488:2528   */\n      and\n        /* \"#utility.yul\":2534:2535   */\n      0x01\n        /* \"#utility.yul\":2530:2541   */\n      dup7\n      swap1\n      shl\n        /* \"#utility.yul\":2485:2542   */\n      or\n        /* \"#utility.yul\":3657:3735   */\n      dup4\n      sstore\n        /* \"#utility.yul\":2858:3745   */\n      jump(tag_72)\n        /* \"#utility.yul\":2885:3493   */\n    tag_80:\n        /* \"#utility.yul\":1806:1807   */\n      0x00\n        /* \"#utility.yul\":1799:1813   */\n      dup4\n      dup2\n      mstore\n        /* \"#utility.yul\":1843:1847   */\n      0x20\n        /* \"#utility.yul\":1830:1848   */\n      dup2\n      keccak256\n      not(0x1f)\n        /* \"#utility.yul\":2921:2938   */\n      dup8\n      and\n      swap2\n        /* \"#utility.yul\":3036:3265   */\n    tag_84:\n        /* \"#utility.yul\":3050:3057   */\n      dup3\n        /* \"#utility.yul\":3047:3048   */\n      dup2\n        /* \"#utility.yul\":3044:3058   */\n      lt\n        /* \"#utility.yul\":3036:3265   */\n      iszero\n      tag_86\n      jumpi\n        /* \"#utility.yul\":3139:3158   */\n      dup7\n      dup6\n      add\n        /* \"#utility.yul\":3126:3159   */\n      calldataload\n        /* \"#utility.yul\":3111:3160   */\n      dup3\n      sstore\n        /* \"#utility.yul\":3246:3250   */\n      0x20\n        /* \"#utility.yul\":3231:3251   */\n      swap5\n      dup6\n      add\n      swap5\n        /* \"#utility.yul\":3199:3200   */\n      0x01\n        /* \"#utility.yul\":3187:3201   */\n      swap1\n      swap3\n      add\n      swap2\n        /* \"#utility.yul\":3066:3078   */\n      add\n        /* \"#utility.yul\":3036:3265   */\n      jump(tag_84)\n    tag_86:\n        /* \"#utility.yul\":3040:3043   */\n      pop\n        /* \"#utility.yul\":3293:3296   */\n      dup7\n        /* \"#utility.yul\":3284:3291   */\n      dup3\n        /* \"#utility.yul\":3281:3297   */\n      lt\n        /* \"#utility.yul\":3278:3437   */\n      iszero\n      tag_87\n      jumpi\n        /* \"#utility.yul\":3417:3418   */\n      0x00\n        /* \"#utility.yul\":3413:3419   */\n      not\n        /* \"#utility.yul\":3407:3410   */\n      0xf8\n        /* \"#utility.yul\":3401:3404   */\n      dup9\n        /* \"#utility.yul\":3398:3399   */\n      0x03\n        /* \"#utility.yul\":3394:3405   */\n      shl\n        /* \"#utility.yul\":3390:3411   */\n      and\n        /* \"#utility.yul\":3386:3420   */\n      shr\n        /* \"#utility.yul\":3382:3421   */\n      not\n        /* \"#utility.yul\":3369:3378   */\n      dup5\n        /* \"#utility.yul\":3364:3367   */\n      dup8\n        /* \"#utility.yul\":3360:3379   */\n      add\n        /* \"#utility.yul\":3347:3380   */\n      calldataload\n        /* \"#utility.yul\":3343:3422   */\n      and\n        /* \"#utility.yul\":3335:3341   */\n      dup2\n        /* \"#utility.yul\":3328:3423   */\n      sstore\n        /* \"#utility.yul\":3278:3437   */\n    tag_87:\n      pop\n      pop\n        /* \"#utility.yul\":3480:3481   */\n      0x01\n        /* \"#utility.yul\":3474:3477   */\n      dup6\n        /* \"#utility.yul\":3471:3472   */\n      0x01\n        /* \"#utility.yul\":3467:3478   */\n      shl\n        /* \"#utility.yul\":3463:3482   */\n      add\n        /* \"#utility.yul\":3457:3461   */\n      dup4\n        /* \"#utility.yul\":3450:3483   */\n      sstore\n        /* \"#utility.yul\":2858:3745   */\n      pop\n      pop\n        /* \"#utility.yul\":2553:3751   */\n      pop\n      pop\n      pop\n      jump\t// out\n        /* \"#utility.yul\":3756:3978   */\n    tag_35:\n        /* \"#utility.yul\":3821:3830   */\n      dup1\n      dup3\n      add\n        /* \"#utility.yul\":3842:3852   */\n      dup1\n      dup3\n      gt\n        /* \"#utility.yul\":3839:3972   */\n      iszero\n      tag_89\n      jumpi\n        /* \"#utility.yul\":3894:3904   */\n      0x4e487b71\n        /* \"#utility.yul\":3889:3892   */\n      0xe0\n        /* \"#utility.yul\":3885:3905   */\n      shl\n        /* \"#utility.yul\":3882:3883   */\n      0x00\n        /* \"#utility.yul\":3875:3906   */\n      mstore\n        /* \"#utility.yul\":3929:3933   */\n      0x11\n        /* \"#utility.yul\":3926:3927   */\n      0x04\n        /* \"#utility.yul\":3919:3934   */\n      mstore\n        /* \"#utility.yul\":3957:3961   */\n      0x24\n        /* \"#utility.yul\":3954:3955   */\n      0x00\n        /* \"#utility.yul\":3947:3962   */\n      revert\n        /* \"#utility.yul\":3839:3972   */\n    tag_89:\n        /* \"#utility.yul\":3756:3978   */\n      swap3\n      swap2\n      pop\n      pop\n      jump\t// out\n\n    auxdata: 0xa26469706673582212208669d7fd7874f1eac5885014af01bacb54bd3c234143d49b9bb255e36524241564736f6c63430008190033\n}\n",
    "bytecode": {
      "linkReferences": {},
      "object": "6080604052348015600e575f80fd5b506104628061001c5f395ff3fe608060405234801561000f575f80fd5b506004361061006f575f3560e01c80638ada066e1161004d5780638ada066e146100ab578063ce6d41de146100b2578063e21f37ce146100c7575f80fd5b8063368b87721461007357806361bc221a146100885780637d55923d146100a3575b5f80fd5b610086610081366004610215565b6100cf565b005b6100905f5481565b6040519081526020015b60405180910390f35b6100866100e1565b5f54610090565b6100ba6100f9565b60405161009a9190610281565b6100ba610189565b60016100dc82848361034d565b505050565b60015f808282546100f29190610407565b9091555050565b606060018054610108906102ca565b80601f0160208091040260200160405190810160405280929190818152602001828054610134906102ca565b801561017f5780601f106101565761010080835404028352916020019161017f565b820191905f5260205f20905b81548152906001019060200180831161016257829003601f168201915b5050505050905090565b60018054610196906102ca565b80601f01602080910402602001604051908101604052809291908181526020018280546101c2906102ca565b801561020d5780601f106101e45761010080835404028352916020019161020d565b820191905f5260205f20905b8154815290600101906020018083116101f057829003601f168201915b505050505081565b5f8060208385031215610226575f80fd5b823567ffffffffffffffff8082111561023d575f80fd5b818501915085601f830112610250575f80fd5b81358181111561025e575f80fd5b86602082850101111561026f575f80fd5b60209290920196919550909350505050565b602081525f82518060208401528060208501604085015e5f604082850101526040601f19601f83011684010191505092915050565b634e487b7160e01b5f52604160045260245ffd5b600181811c908216806102de57607f821691505b6020821081036102fc57634e487b7160e01b5f52602260045260245ffd5b50919050565b601f8211156100dc57805f5260205f20601f840160051c810160208510156103275750805b601f840160051c820191505b81811015610346575f8155600101610333565b5050505050565b67ffffffffffffffff831115610365576103656102b6565b6103798361037383546102ca565b83610302565b5f601f8411600181146103aa575f85156103935750838201355b5f19600387901b1c1916600186901b178355610346565b5f83815260208120601f198716915b828110156103d957868501358255602094850194600190920191016103b9565b50868210156103f5575f1960f88860031b161c19848701351681555b505060018560011b0183555050505050565b8082018082111561042657634e487b7160e01b5f52601160045260245ffd5b9291505056fea26469706673582212208669d7fd7874f1eac5885014af01bacb54bd3c234143d49b9bb255e36524241564736f6c63430008190033",
      "opcodes": "PUSH1 0x80 PUSH1 0x40 MSTORE CALLVALUE DUP1 ISZERO PUSH1 0xE JUMPI PUSH0 DUP1 REVERT JUMPDEST POP PUSH2 0x462 DUP1 PUSH2 0x1C PUSH0 CODECOPY PUSH0 RETURN INVALID PUSH1 0x80 PUSH1 0x40 MSTORE CALLVALUE DUP1 ISZERO PUSH2 0xF JUMPI PUSH0 DUP1 REVERT JUMPDEST POP PUSH1 0x4 CALLDATASIZE LT PUSH2 0x6F JUMPI PUSH0 CALLDATALOAD PUSH1 0xE0 SHR DUP1 PUSH4 0x8ADA066E GT PUSH2 0x4D JUMPI DUP1 PUSH4 0x8ADA066E EQ PUSH2 0xAB JUMPI DUP1 PUSH4 0xCE6D41DE EQ PUSH2 0xB2 JUMPI DUP1 PUSH4 0xE21F37CE EQ PUSH2 0xC7 JUMPI PUSH0 DUP1 REVERT JUMPDEST DUP1 PUSH4 0x368B8772 EQ PUSH2 0x73 JUMPI DUP1 PUSH4 0x61BC221A EQ PUSH2 0x88 JUMPI DUP1 PUSH4 0x7D55923D EQ PUSH2 0xA3 JUMPI JUMPDEST PUSH0 DUP1 REVERT JUMPDEST PUSH2 0x86 PUSH2 0x81 CALLDATASIZE PUSH1 0x4 PUSH2 0x215 JUMP JUMPDEST PUSH2 0xCF JUMP JUMPDEST STOP JUMPDEST PUSH2 0x90 PUSH0 SLOAD DUP2 JUMP JUMPDEST PUSH1 0x40 MLOAD SWAP1 DUP2 MSTORE PUSH1 0x20 ADD JUMPDEST PUSH1 0x40 MLOAD DUP1 SWAP2 SUB SWAP1 RETURN JUMPDEST PUSH2 0x86 PUSH2 0xE1 JUMP JUMPDEST PUSH0 SLOAD PUSH2 0x90 JUMP JUMPDEST PUSH2 0xBA PUSH2 0xF9 JUMP JUMPDEST PUSH1 0x40 MLOAD PUSH2 0x9A SWAP2 SWAP1 PUSH2 0x281 JUMP JUMPDEST PUSH2 0xBA PUSH2 0x189 JUMP JUMPDEST PUSH1 0x1 PUSH2 0xDC DUP3 DUP5 DUP4 PUSH2 0x34D JUMP JUMPDEST POP POP POP JUMP JUMPDEST PUSH1 0x1 PUSH0 DUP1 DUP3 DUP3 SLOAD PUSH2 0xF2 SWAP2 SWAP1 PUSH2 0x407 JUMP JUMPDEST SWAP1 SWAP2 SSTORE POP POP JUMP JUMPDEST PUSH1 0x60 PUSH1 0x1 DUP1 SLOAD PUSH2 0x108 SWAP1 PUSH2 0x2CA JUMP JUMPDEST DUP1 PUSH1 0x1F ADD PUSH1 0x20 DUP1 SWAP2 DIV MUL PUSH1 0x20 ADD PUSH1 0x40 MLOAD SWAP1 DUP2 ADD PUSH1 0x40 MSTORE DUP1 SWAP3 SWAP2 SWAP1 DUP2 DUP2 MSTORE PUSH1 0x20 ADD DUP3 DUP1 SLOAD PUSH2 0x134 SWAP1 PUSH2 0x2CA JUMP JUMPDEST DUP1 ISZERO PUSH2 0x17F JUMPI DUP1 PUSH1 0x1F LT PUSH2 0x156 JUMPI PUSH2 0x100 DUP1 DUP4 SLOAD DIV MUL DUP4 MSTORE SWAP2 PUSH1 0x20 ADD SWAP2 PUSH2 0x17F JUMP JUMPDEST DUP3 ADD SWAP2 SWAP1 PUSH0 MSTORE PUSH1 0x20 PUSH0 KECCAK256 SWAP1 JUMPDEST DUP2 SLOAD DUP2 MSTORE SWAP1 PUSH1 0x1 ADD SWAP1 PUSH1 0x20 ADD DUP1 DUP4 GT PUSH2 0x162 JUMPI DUP3 SWAP1 SUB PUSH1 0x1F AND DUP3 ADD SWAP2 JUMPDEST POP POP POP POP POP SWAP1 POP SWAP1 JUMP JUMPDEST PUSH1 0x1 DUP1 SLOAD PUSH2 0x196 SWAP1 PUSH2 0x2CA JUMP JUMPDEST DUP1 PUSH1 0x1F ADD PUSH1 0x20 DUP1 SWAP2 DIV MUL PUSH1 0x20 ADD PUSH1 0x40 MLOAD SWAP1 DUP2 ADD PUSH1 0x40 MSTORE DUP1 SWAP3 SWAP2 SWAP1 DUP2 DUP2 MSTORE PUSH1 0x20 ADD DUP3 DUP1 SLOAD PUSH2 0x1C2 SWAP1 PUSH2 0x2CA JUMP JUMPDEST DUP1 ISZERO PUSH2 0x20D JUMPI DUP1 PUSH1 0x1F LT PUSH2 0x1E4 JUMPI PUSH2 0x100 DUP1 DUP4 SLOAD DIV MUL DUP4 MSTORE SWAP2 PUSH1 0x20 ADD SWAP2 PUSH2 0x20D JUMP JUMPDEST DUP3 ADD SWAP2 SWAP1 PUSH0 MSTORE PUSH1 0x20 PUSH0 KECCAK256 SWAP1 JUMPDEST DUP2 SLOAD DUP2 MSTORE SWAP1 PUSH1 0x1 ADD SWAP1 PUSH1 0x20 ADD DUP1 DUP4 GT PUSH2 0x1F0 JUMPI DUP3 SWAP1 SUB PUSH1 0x1F AND DUP3 ADD SWAP2 JUMPDEST POP POP POP POP POP DUP2 JUMP JUMPDEST PUSH0 DUP1 PUSH1 0x20 DUP4 DUP6 SUB SLT ISZERO PUSH2 0x226 JUMPI PUSH0 DUP1 REVERT JUMPDEST DUP3 CALLDATALOAD PUSH8 0xFFFFFFFFFFFFFFFF DUP1 DUP3 GT ISZERO PUSH2 0x23D JUMPI PUSH0 DUP1 REVERT JUMPDEST DUP2 DUP6 ADD SWAP2 POP DUP6 PUSH1 0x1F DUP4 ADD SLT PUSH2 0x250 JUMPI PUSH0 DUP1 REVERT JUMPDEST DUP2 CALLDATALOAD DUP2 DUP2 GT ISZERO PUSH2 0x25E JUMPI PUSH0 DUP1 REVERT JUMPDEST DUP7 PUSH1 0x20 DUP3 DUP6 ADD ADD GT ISZERO PUSH2 0x26F JUMPI PUSH0 DUP1 REVERT JUMPDEST PUSH1 0x20 SWAP3 SWAP1 SWAP3 ADD SWAP7 SWAP2 SWAP6 POP SWAP1 SWAP4 POP POP POP POP JUMP JUMPDEST PUSH1 0x20 DUP2 MSTORE PUSH0 DUP3 MLOAD DUP1 PUSH1 0x20 DUP5 ADD MSTORE DUP1 PUSH1 0x20 DUP6 ADD PUSH1 0x40 DUP6 ADD MCOPY PUSH0 PUSH1 0x40 DUP3 DUP6 ADD ADD MSTORE PUSH1 0x40 PUSH1 0x1F NOT PUSH1 0x1F DUP4 ADD AND DUP5 ADD ADD SWAP2 POP POP SWAP3 SWAP2 POP POP JUMP JUMPDEST PUSH4 0x4E487B71 PUSH1 0xE0 SHL PUSH0 MSTORE PUSH1 0x41 PUSH1 0x4 MSTORE PUSH1 0x24 PUSH0 REVERT JUMPDEST PUSH1 0x1 DUP2 DUP2 SHR SWAP1 DUP3 AND DUP1 PUSH2 0x2DE JUMPI PUSH1 0x7F DUP3 AND SWAP2 POP JUMPDEST PUSH1 0x20 DUP3 LT DUP2 SUB PUSH2 0x2FC JUMPI PUSH4 0x4E487B71 PUSH1 0xE0 SHL PUSH0 MSTORE PUSH1 0x22 PUSH1 0x4 MSTORE PUSH1 0x24 PUSH0 REVERT JUMPDEST POP SWAP2 SWAP1 POP JUMP JUMPDEST PUSH1 0x1F DUP3 GT ISZERO PUSH2 0xDC JUMPI DUP1 PUSH0 MSTORE PUSH1 0x20 PUSH0 KECCAK256 PUSH1 0x1F DUP5 ADD PUSH1 0x5 SHR DUP2 ADD PUSH1 0x20 DUP6 LT ISZERO PUSH2 0x327 JUMPI POP DUP1 JUMPDEST PUSH1 0x1F DUP5 ADD PUSH1 0x5 SHR DUP3 ADD SWAP2 POP JUMPDEST DUP2 DUP2 LT ISZERO PUSH2 0x346 JUMPI PUSH0 DUP2 SSTORE PUSH1 0x1 ADD PUSH2 0x333 JUMP JUMPDEST POP POP POP POP POP JUMP JUMPDEST PUSH8 0xFFFFFFFFFFFFFFFF DUP4 GT ISZERO PUSH2 0x365 JUMPI PUSH2 0x365 PUSH2 0x2B6 JUMP JUMPDEST PUSH2 0x379 DUP4 PUSH2 0x373 DUP4 SLOAD PUSH2 0x2CA JUMP JUMPDEST DUP4 PUSH2 0x302 JUMP JUMPDEST PUSH0 PUSH1 0x1F DUP5 GT PUSH1 0x1 DUP2 EQ PUSH2 0x3AA JUMPI PUSH0 DUP6 ISZERO PUSH2 0x393 JUMPI POP DUP4 DUP3 ADD CALLDATALOAD JUMPDEST PUSH0 NOT PUSH1 0x3 DUP8 SWAP1 SHL SHR NOT AND PUSH1 0x1 DUP7 SWAP1 SHL OR DUP4 SSTORE PUSH2 0x346 JUMP JUMPDEST PUSH0 DUP4 DUP2 MSTORE PUSH1 0x20 DUP2 KECCAK256 PUSH1 0x1F NOT DUP8 AND SWAP2 JUMPDEST DUP3 DUP2 LT ISZERO PUSH2 0x3D9 JUMPI DUP7 DUP6 ADD CALLDATALOAD DUP3 SSTORE PUSH1 0x20 SWAP5 DUP6 ADD SWAP5 PUSH1 0x1 SWAP1 SWAP3 ADD SWAP2 ADD PUSH2 0x3B9 JUMP JUMPDEST POP DUP7 DUP3 LT ISZERO PUSH2 0x3F5 JUMPI PUSH0 NOT PUSH1 0xF8 DUP9 PUSH1 0x3 SHL AND SHR NOT DUP5 DUP8 ADD CALLDATALOAD AND DUP2 SSTORE JUMPDEST POP POP PUSH1 0x1 DUP6 PUSH1 0x1 SHL ADD DUP4 SSTORE POP POP POP POP POP JUMP JUMPDEST DUP1 DUP3 ADD DUP1 DUP3 GT ISZERO PUSH2 0x426 JUMPI PUSH4 0x4E487B71 PUSH1 0xE0 SHL PUSH0 MSTORE PUSH1 0x11 PUSH1 0x4 MSTORE PUSH1 0x24 PUSH0 REVERT JUMPDEST SWAP3 SWAP2 POP POP JUMP INVALID LOG2 PUSH5 0x6970667358 0x22 SLT KECCAK256 DUP7 PUSH10 0xD7FD7874F1EAC5885014 0xAF ADD 0xBA 0xCB SLOAD 0xBD EXTCODECOPY 0x23 COINBASE NUMBER 0xD4 SWAP12 SWAP12 0xB2 SSTORE 0xE3 PUSH6 0x24241564736F PUSH13 0x63430008190033000000000000 "
    },
    "gasEstimates": {
      "creation": {
        "codeDepositCost": "224400",
        "executionCost": "267",
        "totalCost": "224667"
      },
      "external": {
        "click()": "24487",
        "counter()": "2305",
        "getCounter()": "2279",
        "getMessage()": "infinite",
        "message()": "infinite",
        "setMessage(string)": "infinite"
      }
    },
    "methodIdentifiers": {
      "click()": "7d55923d",
      "counter()": "61bc221a",
      "getCounter()": "8ada066e",
      "getMessage()": "ce6d41de",
      "message()": "e21f37ce",
      "setMessage(string)": "368b8772"
    }
  },
  "storageLayout": {
    "storage": [
      {
        "astId": 4,
        "contract": "ClickerTest.sol:ClickerTest",
        "label": "counter",
        "offset": 0,
        "slot": "0",
        "type": "t_uint256"
      },
      {
        "astId": 6,
        "contract": "ClickerTest.sol:ClickerTest",
        "label": "message",
        "offset": 0,
        "slot": "1",
        "type": "t_string_storage"
      }
    ],
    "types": {
      "t_string_storage": {
        "encoding": "bytes",
        "label": "string",
        "numberOfBytes": "32"
      },
      "t_uint256": {
        "encoding": "inplace",
        "label": "uint256",
        "numberOfBytes": "32"
      }
    }
  },
  "userdoc": {
    "kind": "user",
    "methods": {},
    "version": 1
  }
}